{
	"contracts/Counter.sol": {
		"Counter": {
			"abi": [
				{
					"inputs": [
						{
							"internalType": "address",
							"name": "gateway",
							"type": "address"
						}
					],
					"stateMutability": "nonpayable",
					"type": "constructor"
				},
				{
					"inputs": [],
					"name": "number",
					"outputs": [
						{
							"internalType": "uint256",
							"name": "",
							"type": "uint256"
						}
					],
					"stateMutability": "view",
					"type": "function"
				},
				{
					"inputs": [
						{
							"internalType": "bytes32",
							"name": "",
							"type": "bytes32"
						},
						{
							"internalType": "uint128",
							"name": "",
							"type": "uint128"
						},
						{
							"internalType": "bytes32",
							"name": "",
							"type": "bytes32"
						},
						{
							"internalType": "bytes",
							"name": "",
							"type": "bytes"
						}
					],
					"name": "onGmpReceived",
					"outputs": [
						{
							"internalType": "bytes32",
							"name": "",
							"type": "bytes32"
						}
					],
					"stateMutability": "payable",
					"type": "function"
				}
			],
			"devdoc": {
				"kind": "dev",
				"methods": {},
				"version": 1
			},
			"evm": {
				"assembly": "    /* \"contracts/Counter.sol\":120:527  contract Counter is IGmpReceiver {... */\n  mstore(0x40, 0xa0)\n    /* \"contracts/Counter.sol\":231:297  constructor(address gateway) {... */\n  callvalue\n  dup1\n  iszero\n  tag_1\n  jumpi\n  0x00\n  dup1\n  revert\ntag_1:\n  pop\n  mload(0x40)\n  sub(codesize, bytecodeSize)\n  dup1\n  bytecodeSize\n  dup4\n  codecopy\n  dup2\n  dup2\n  add\n  0x40\n  mstore\n  dup2\n  add\n  swap1\n  tag_2\n  swap2\n  swap1\n  tag_3\n  jump\t// in\ntag_2:\n    /* \"contracts/Counter.sol\":282:289  gateway */\n  dup1\n    /* \"contracts/Counter.sol\":271:289  _gateway = gateway */\n  0xffffffffffffffffffffffffffffffffffffffff\n  and\n  0x80\n  dup2\n  0xffffffffffffffffffffffffffffffffffffffff\n  and\n  dup2\n  mstore\n  pop\n  pop\n    /* \"contracts/Counter.sol\":231:297  constructor(address gateway) {... */\n  pop\n    /* \"contracts/Counter.sol\":120:527  contract Counter is IGmpReceiver {... */\n  jump(tag_6)\n    /* \"#utility.yul\":88:205   */\ntag_8:\n    /* \"#utility.yul\":197:198   */\n  0x00\n    /* \"#utility.yul\":194:195   */\n  dup1\n    /* \"#utility.yul\":187:199   */\n  revert\n    /* \"#utility.yul\":334:460   */\ntag_10:\n    /* \"#utility.yul\":371:378   */\n  0x00\n    /* \"#utility.yul\":411:453   */\n  0xffffffffffffffffffffffffffffffffffffffff\n    /* \"#utility.yul\":404:409   */\n  dup3\n    /* \"#utility.yul\":400:454   */\n  and\n    /* \"#utility.yul\":389:454   */\n  swap1\n  pop\n    /* \"#utility.yul\":334:460   */\n  swap2\n  swap1\n  pop\n  jump\t// out\n    /* \"#utility.yul\":466:562   */\ntag_11:\n    /* \"#utility.yul\":503:510   */\n  0x00\n    /* \"#utility.yul\":532:556   */\n  tag_20\n    /* \"#utility.yul\":550:555   */\n  dup3\n    /* \"#utility.yul\":532:556   */\n  tag_10\n  jump\t// in\ntag_20:\n    /* \"#utility.yul\":521:556   */\n  swap1\n  pop\n    /* \"#utility.yul\":466:562   */\n  swap2\n  swap1\n  pop\n  jump\t// out\n    /* \"#utility.yul\":568:690   */\ntag_12:\n    /* \"#utility.yul\":641:665   */\n  tag_22\n    /* \"#utility.yul\":659:664   */\n  dup2\n    /* \"#utility.yul\":641:665   */\n  tag_11\n  jump\t// in\ntag_22:\n    /* \"#utility.yul\":634:639   */\n  dup2\n    /* \"#utility.yul\":631:666   */\n  eq\n    /* \"#utility.yul\":621:684   */\n  tag_23\n  jumpi\n    /* \"#utility.yul\":680:681   */\n  0x00\n    /* \"#utility.yul\":677:678   */\n  dup1\n    /* \"#utility.yul\":670:682   */\n  revert\n    /* \"#utility.yul\":621:684   */\ntag_23:\n    /* \"#utility.yul\":568:690   */\n  pop\n  jump\t// out\n    /* \"#utility.yul\":696:839   */\ntag_13:\n    /* \"#utility.yul\":753:758   */\n  0x00\n    /* \"#utility.yul\":784:790   */\n  dup2\n    /* \"#utility.yul\":778:791   */\n  mload\n    /* \"#utility.yul\":769:791   */\n  swap1\n  pop\n    /* \"#utility.yul\":800:833   */\n  tag_25\n    /* \"#utility.yul\":827:832   */\n  dup2\n    /* \"#utility.yul\":800:833   */\n  tag_12\n  jump\t// in\ntag_25:\n    /* \"#utility.yul\":696:839   */\n  swap3\n  swap2\n  pop\n  pop\n  jump\t// out\n    /* \"#utility.yul\":845:1196   */\ntag_3:\n    /* \"#utility.yul\":915:921   */\n  0x00\n    /* \"#utility.yul\":964:966   */\n  0x20\n    /* \"#utility.yul\":952:961   */\n  dup3\n    /* \"#utility.yul\":943:950   */\n  dup5\n    /* \"#utility.yul\":939:962   */\n  sub\n    /* \"#utility.yul\":935:967   */\n  slt\n    /* \"#utility.yul\":932:1051   */\n  iszero\n  tag_27\n  jumpi\n    /* \"#utility.yul\":970:1049   */\n  tag_28\n  tag_8\n  jump\t// in\ntag_28:\n    /* \"#utility.yul\":932:1051   */\ntag_27:\n    /* \"#utility.yul\":1090:1091   */\n  0x00\n    /* \"#utility.yul\":1115:1179   */\n  tag_29\n    /* \"#utility.yul\":1171:1178   */\n  dup5\n    /* \"#utility.yul\":1162:1168   */\n  dup3\n    /* \"#utility.yul\":1151:1160   */\n  dup6\n    /* \"#utility.yul\":1147:1169   */\n  add\n    /* \"#utility.yul\":1115:1179   */\n  tag_13\n  jump\t// in\ntag_29:\n    /* \"#utility.yul\":1105:1179   */\n  swap2\n  pop\n    /* \"#utility.yul\":1061:1189   */\n  pop\n    /* \"#utility.yul\":845:1196   */\n  swap3\n  swap2\n  pop\n  pop\n  jump\t// out\n    /* \"contracts/Counter.sol\":120:527  contract Counter is IGmpReceiver {... */\ntag_6:\n  mload(0x80)\n  codecopy(0x00, dataOffset(sub_0), dataSize(sub_0))\n  0x00\n  assignImmutable(\"0x52f1a9b320cab38e5da8a8f97989383aab0a49165fc91c737310e4f7e9821021\")\n  return(0x00, dataSize(sub_0))\nstop\n\nsub_0: assembly {\n        /* \"contracts/Counter.sol\":120:527  contract Counter is IGmpReceiver {... */\n      mstore(0x40, 0x80)\n      jumpi(tag_1, lt(calldatasize, 0x04))\n      shr(0xe0, calldataload(0x00))\n      dup1\n      0x01900937\n      eq\n      tag_2\n      jumpi\n      dup1\n      0x8381f58a\n      eq\n      tag_3\n      jumpi\n    tag_1:\n      0x00\n      dup1\n      revert\n        /* \"contracts/Counter.sol\":305:524  function onGmpReceived(bytes32, uint128, bytes32, bytes calldata) external payable returns (bytes32) {... */\n    tag_2:\n      tag_4\n      0x04\n      dup1\n      calldatasize\n      sub\n      dup2\n      add\n      swap1\n      tag_5\n      swap2\n      swap1\n      tag_6\n      jump\t// in\n    tag_5:\n      tag_7\n      jump\t// in\n    tag_4:\n      mload(0x40)\n      tag_8\n      swap2\n      swap1\n      tag_9\n      jump\t// in\n    tag_8:\n      mload(0x40)\n      dup1\n      swap2\n      sub\n      swap1\n      return\n        /* \"contracts/Counter.sol\":201:222  uint256 public number */\n    tag_3:\n      callvalue\n      dup1\n      iszero\n      tag_10\n      jumpi\n      0x00\n      dup1\n      revert\n    tag_10:\n      pop\n      tag_11\n      tag_12\n      jump\t// in\n    tag_11:\n      mload(0x40)\n      tag_13\n      swap2\n      swap1\n      tag_14\n      jump\t// in\n    tag_13:\n      mload(0x40)\n      dup1\n      swap2\n      sub\n      swap1\n      return\n        /* \"contracts/Counter.sol\":305:524  function onGmpReceived(bytes32, uint128, bytes32, bytes calldata) external payable returns (bytes32) {... */\n    tag_7:\n        /* \"contracts/Counter.sol\":397:404  bytes32 */\n      0x00\n        /* \"contracts/Counter.sol\":439:447  _gateway */\n      immutable(\"0x52f1a9b320cab38e5da8a8f97989383aab0a49165fc91c737310e4f7e9821021\")\n        /* \"contracts/Counter.sol\":425:447  msg.sender == _gateway */\n      0xffffffffffffffffffffffffffffffffffffffff\n      and\n        /* \"contracts/Counter.sol\":425:435  msg.sender */\n      caller\n        /* \"contracts/Counter.sol\":425:447  msg.sender == _gateway */\n      0xffffffffffffffffffffffffffffffffffffffff\n      and\n      eq\n        /* \"contracts/Counter.sol\":417:464  require(msg.sender == _gateway, \"unauthorized\") */\n      tag_16\n      jumpi\n      mload(0x40)\n      0x08c379a000000000000000000000000000000000000000000000000000000000\n      dup2\n      mstore\n      0x04\n      add\n      tag_17\n      swap1\n      tag_18\n      jump\t// in\n    tag_17:\n      mload(0x40)\n      dup1\n      swap2\n      sub\n      swap1\n      revert\n    tag_16:\n        /* \"contracts/Counter.sol\":475:481  number */\n      0x00\n      dup1\n        /* \"contracts/Counter.sol\":475:483  number++ */\n      dup2\n      sload\n      dup1\n      swap3\n      swap2\n      swap1\n      tag_19\n      swap1\n      tag_20\n      jump\t// in\n    tag_19:\n      swap2\n      swap1\n      pop\n      sstore\n      pop\n        /* \"contracts/Counter.sol\":509:515  number */\n      sload(0x00)\n        /* \"contracts/Counter.sol\":501:516  bytes32(number) */\n      0x00\n      shl\n        /* \"contracts/Counter.sol\":494:516  return bytes32(number) */\n      swap1\n      pop\n        /* \"contracts/Counter.sol\":305:524  function onGmpReceived(bytes32, uint128, bytes32, bytes calldata) external payable returns (bytes32) {... */\n      swap6\n      swap5\n      pop\n      pop\n      pop\n      pop\n      pop\n      jump\t// out\n        /* \"contracts/Counter.sol\":201:222  uint256 public number */\n    tag_12:\n      sload(0x00)\n      dup2\n      jump\t// out\n        /* \"#utility.yul\":88:205   */\n    tag_22:\n        /* \"#utility.yul\":197:198   */\n      0x00\n        /* \"#utility.yul\":194:195   */\n      dup1\n        /* \"#utility.yul\":187:199   */\n      revert\n        /* \"#utility.yul\":211:328   */\n    tag_23:\n        /* \"#utility.yul\":320:321   */\n      0x00\n        /* \"#utility.yul\":317:318   */\n      dup1\n        /* \"#utility.yul\":310:322   */\n      revert\n        /* \"#utility.yul\":334:411   */\n    tag_24:\n        /* \"#utility.yul\":371:378   */\n      0x00\n        /* \"#utility.yul\":400:405   */\n      dup2\n        /* \"#utility.yul\":389:405   */\n      swap1\n      pop\n        /* \"#utility.yul\":334:411   */\n      swap2\n      swap1\n      pop\n      jump\t// out\n        /* \"#utility.yul\":417:539   */\n    tag_25:\n        /* \"#utility.yul\":490:514   */\n      tag_47\n        /* \"#utility.yul\":508:513   */\n      dup2\n        /* \"#utility.yul\":490:514   */\n      tag_24\n      jump\t// in\n    tag_47:\n        /* \"#utility.yul\":483:488   */\n      dup2\n        /* \"#utility.yul\":480:515   */\n      eq\n        /* \"#utility.yul\":470:533   */\n      tag_48\n      jumpi\n        /* \"#utility.yul\":529:530   */\n      0x00\n        /* \"#utility.yul\":526:527   */\n      dup1\n        /* \"#utility.yul\":519:531   */\n      revert\n        /* \"#utility.yul\":470:533   */\n    tag_48:\n        /* \"#utility.yul\":417:539   */\n      pop\n      jump\t// out\n        /* \"#utility.yul\":545:684   */\n    tag_26:\n        /* \"#utility.yul\":591:596   */\n      0x00\n        /* \"#utility.yul\":629:635   */\n      dup2\n        /* \"#utility.yul\":616:636   */\n      calldataload\n        /* \"#utility.yul\":607:636   */\n      swap1\n      pop\n        /* \"#utility.yul\":645:678   */\n      tag_50\n        /* \"#utility.yul\":672:677   */\n      dup2\n        /* \"#utility.yul\":645:678   */\n      tag_25\n      jump\t// in\n    tag_50:\n        /* \"#utility.yul\":545:684   */\n      swap3\n      swap2\n      pop\n      pop\n      jump\t// out\n        /* \"#utility.yul\":690:808   */\n    tag_27:\n        /* \"#utility.yul\":727:734   */\n      0x00\n        /* \"#utility.yul\":767:801   */\n      0xffffffffffffffffffffffffffffffff\n        /* \"#utility.yul\":760:765   */\n      dup3\n        /* \"#utility.yul\":756:802   */\n      and\n        /* \"#utility.yul\":745:802   */\n      swap1\n      pop\n        /* \"#utility.yul\":690:808   */\n      swap2\n      swap1\n      pop\n      jump\t// out\n        /* \"#utility.yul\":814:936   */\n    tag_28:\n        /* \"#utility.yul\":887:911   */\n      tag_53\n        /* \"#utility.yul\":905:910   */\n      dup2\n        /* \"#utility.yul\":887:911   */\n      tag_27\n      jump\t// in\n    tag_53:\n        /* \"#utility.yul\":880:885   */\n      dup2\n        /* \"#utility.yul\":877:912   */\n      eq\n        /* \"#utility.yul\":867:930   */\n      tag_54\n      jumpi\n        /* \"#utility.yul\":926:927   */\n      0x00\n        /* \"#utility.yul\":923:924   */\n      dup1\n        /* \"#utility.yul\":916:928   */\n      revert\n        /* \"#utility.yul\":867:930   */\n    tag_54:\n        /* \"#utility.yul\":814:936   */\n      pop\n      jump\t// out\n        /* \"#utility.yul\":942:1081   */\n    tag_29:\n        /* \"#utility.yul\":988:993   */\n      0x00\n        /* \"#utility.yul\":1026:1032   */\n      dup2\n        /* \"#utility.yul\":1013:1033   */\n      calldataload\n        /* \"#utility.yul\":1004:1033   */\n      swap1\n      pop\n        /* \"#utility.yul\":1042:1075   */\n      tag_56\n        /* \"#utility.yul\":1069:1074   */\n      dup2\n        /* \"#utility.yul\":1042:1075   */\n      tag_28\n      jump\t// in\n    tag_56:\n        /* \"#utility.yul\":942:1081   */\n      swap3\n      swap2\n      pop\n      pop\n      jump\t// out\n        /* \"#utility.yul\":1087:1204   */\n    tag_30:\n        /* \"#utility.yul\":1196:1197   */\n      0x00\n        /* \"#utility.yul\":1193:1194   */\n      dup1\n        /* \"#utility.yul\":1186:1198   */\n      revert\n        /* \"#utility.yul\":1210:1327   */\n    tag_31:\n        /* \"#utility.yul\":1319:1320   */\n      0x00\n        /* \"#utility.yul\":1316:1317   */\n      dup1\n        /* \"#utility.yul\":1309:1321   */\n      revert\n        /* \"#utility.yul\":1333:1450   */\n    tag_32:\n        /* \"#utility.yul\":1442:1443   */\n      0x00\n        /* \"#utility.yul\":1439:1440   */\n      dup1\n        /* \"#utility.yul\":1432:1444   */\n      revert\n        /* \"#utility.yul\":1469:2021   */\n    tag_33:\n        /* \"#utility.yul\":1526:1534   */\n      0x00\n        /* \"#utility.yul\":1536:1542   */\n      dup1\n        /* \"#utility.yul\":1586:1589   */\n      dup4\n        /* \"#utility.yul\":1579:1583   */\n      0x1f\n        /* \"#utility.yul\":1571:1577   */\n      dup5\n        /* \"#utility.yul\":1567:1584   */\n      add\n        /* \"#utility.yul\":1563:1590   */\n      slt\n        /* \"#utility.yul\":1553:1675   */\n      tag_61\n      jumpi\n        /* \"#utility.yul\":1594:1673   */\n      tag_62\n      tag_30\n      jump\t// in\n    tag_62:\n        /* \"#utility.yul\":1553:1675   */\n    tag_61:\n        /* \"#utility.yul\":1707:1713   */\n      dup3\n        /* \"#utility.yul\":1694:1714   */\n      calldataload\n        /* \"#utility.yul\":1684:1714   */\n      swap1\n      pop\n        /* \"#utility.yul\":1737:1755   */\n      0xffffffffffffffff\n        /* \"#utility.yul\":1729:1735   */\n      dup2\n        /* \"#utility.yul\":1726:1756   */\n      gt\n        /* \"#utility.yul\":1723:1840   */\n      iszero\n      tag_63\n      jumpi\n        /* \"#utility.yul\":1759:1838   */\n      tag_64\n      tag_31\n      jump\t// in\n    tag_64:\n        /* \"#utility.yul\":1723:1840   */\n    tag_63:\n        /* \"#utility.yul\":1873:1877   */\n      0x20\n        /* \"#utility.yul\":1865:1871   */\n      dup4\n        /* \"#utility.yul\":1861:1878   */\n      add\n        /* \"#utility.yul\":1849:1878   */\n      swap2\n      pop\n        /* \"#utility.yul\":1927:1930   */\n      dup4\n        /* \"#utility.yul\":1919:1923   */\n      0x01\n        /* \"#utility.yul\":1911:1917   */\n      dup3\n        /* \"#utility.yul\":1907:1924   */\n      mul\n        /* \"#utility.yul\":1897:1905   */\n      dup4\n        /* \"#utility.yul\":1893:1925   */\n      add\n        /* \"#utility.yul\":1890:1931   */\n      gt\n        /* \"#utility.yul\":1887:2015   */\n      iszero\n      tag_65\n      jumpi\n        /* \"#utility.yul\":1934:2013   */\n      tag_66\n      tag_32\n      jump\t// in\n    tag_66:\n        /* \"#utility.yul\":1887:2015   */\n    tag_65:\n        /* \"#utility.yul\":1469:2021   */\n      swap3\n      pop\n      swap3\n      swap1\n      pop\n      jump\t// out\n        /* \"#utility.yul\":2027:2990   */\n    tag_6:\n        /* \"#utility.yul\":2124:2130   */\n      0x00\n        /* \"#utility.yul\":2132:2138   */\n      dup1\n        /* \"#utility.yul\":2140:2146   */\n      0x00\n        /* \"#utility.yul\":2148:2154   */\n      dup1\n        /* \"#utility.yul\":2156:2162   */\n      0x00\n        /* \"#utility.yul\":2205:2208   */\n      0x80\n        /* \"#utility.yul\":2193:2202   */\n      dup7\n        /* \"#utility.yul\":2184:2191   */\n      dup9\n        /* \"#utility.yul\":2180:2203   */\n      sub\n        /* \"#utility.yul\":2176:2209   */\n      slt\n        /* \"#utility.yul\":2173:2293   */\n      iszero\n      tag_68\n      jumpi\n        /* \"#utility.yul\":2212:2291   */\n      tag_69\n      tag_22\n      jump\t// in\n    tag_69:\n        /* \"#utility.yul\":2173:2293   */\n    tag_68:\n        /* \"#utility.yul\":2332:2333   */\n      0x00\n        /* \"#utility.yul\":2357:2410   */\n      tag_70\n        /* \"#utility.yul\":2402:2409   */\n      dup9\n        /* \"#utility.yul\":2393:2399   */\n      dup3\n        /* \"#utility.yul\":2382:2391   */\n      dup10\n        /* \"#utility.yul\":2378:2400   */\n      add\n        /* \"#utility.yul\":2357:2410   */\n      tag_26\n      jump\t// in\n    tag_70:\n        /* \"#utility.yul\":2347:2410   */\n      swap6\n      pop\n        /* \"#utility.yul\":2303:2420   */\n      pop\n        /* \"#utility.yul\":2459:2461   */\n      0x20\n        /* \"#utility.yul\":2485:2538   */\n      tag_71\n        /* \"#utility.yul\":2530:2537   */\n      dup9\n        /* \"#utility.yul\":2521:2527   */\n      dup3\n        /* \"#utility.yul\":2510:2519   */\n      dup10\n        /* \"#utility.yul\":2506:2528   */\n      add\n        /* \"#utility.yul\":2485:2538   */\n      tag_29\n      jump\t// in\n    tag_71:\n        /* \"#utility.yul\":2475:2538   */\n      swap5\n      pop\n        /* \"#utility.yul\":2430:2548   */\n      pop\n        /* \"#utility.yul\":2587:2589   */\n      0x40\n        /* \"#utility.yul\":2613:2666   */\n      tag_72\n        /* \"#utility.yul\":2658:2665   */\n      dup9\n        /* \"#utility.yul\":2649:2655   */\n      dup3\n        /* \"#utility.yul\":2638:2647   */\n      dup10\n        /* \"#utility.yul\":2634:2656   */\n      add\n        /* \"#utility.yul\":2613:2666   */\n      tag_26\n      jump\t// in\n    tag_72:\n        /* \"#utility.yul\":2603:2666   */\n      swap4\n      pop\n        /* \"#utility.yul\":2558:2676   */\n      pop\n        /* \"#utility.yul\":2743:2745   */\n      0x60\n        /* \"#utility.yul\":2732:2741   */\n      dup7\n        /* \"#utility.yul\":2728:2746   */\n      add\n        /* \"#utility.yul\":2715:2747   */\n      calldataload\n        /* \"#utility.yul\":2774:2792   */\n      0xffffffffffffffff\n        /* \"#utility.yul\":2766:2772   */\n      dup2\n        /* \"#utility.yul\":2763:2793   */\n      gt\n        /* \"#utility.yul\":2760:2877   */\n      iszero\n      tag_73\n      jumpi\n        /* \"#utility.yul\":2796:2875   */\n      tag_74\n      tag_23\n      jump\t// in\n    tag_74:\n        /* \"#utility.yul\":2760:2877   */\n    tag_73:\n        /* \"#utility.yul\":2909:2973   */\n      tag_75\n        /* \"#utility.yul\":2965:2972   */\n      dup9\n        /* \"#utility.yul\":2956:2962   */\n      dup3\n        /* \"#utility.yul\":2945:2954   */\n      dup10\n        /* \"#utility.yul\":2941:2963   */\n      add\n        /* \"#utility.yul\":2909:2973   */\n      tag_33\n      jump\t// in\n    tag_75:\n        /* \"#utility.yul\":2891:2973   */\n      swap3\n      pop\n      swap3\n      pop\n        /* \"#utility.yul\":2686:2983   */\n      pop\n        /* \"#utility.yul\":2027:2990   */\n      swap3\n      swap6\n      pop\n      swap3\n      swap6\n      swap1\n      swap4\n      pop\n      jump\t// out\n        /* \"#utility.yul\":2996:3114   */\n    tag_34:\n        /* \"#utility.yul\":3083:3107   */\n      tag_77\n        /* \"#utility.yul\":3101:3106   */\n      dup2\n        /* \"#utility.yul\":3083:3107   */\n      tag_24\n      jump\t// in\n    tag_77:\n        /* \"#utility.yul\":3078:3081   */\n      dup3\n        /* \"#utility.yul\":3071:3108   */\n      mstore\n        /* \"#utility.yul\":2996:3114   */\n      pop\n      pop\n      jump\t// out\n        /* \"#utility.yul\":3120:3342   */\n    tag_9:\n        /* \"#utility.yul\":3213:3217   */\n      0x00\n        /* \"#utility.yul\":3251:3253   */\n      0x20\n        /* \"#utility.yul\":3240:3249   */\n      dup3\n        /* \"#utility.yul\":3236:3254   */\n      add\n        /* \"#utility.yul\":3228:3254   */\n      swap1\n      pop\n        /* \"#utility.yul\":3264:3335   */\n      tag_79\n        /* \"#utility.yul\":3332:3333   */\n      0x00\n        /* \"#utility.yul\":3321:3330   */\n      dup4\n        /* \"#utility.yul\":3317:3334   */\n      add\n        /* \"#utility.yul\":3308:3314   */\n      dup5\n        /* \"#utility.yul\":3264:3335   */\n      tag_34\n      jump\t// in\n    tag_79:\n        /* \"#utility.yul\":3120:3342   */\n      swap3\n      swap2\n      pop\n      pop\n      jump\t// out\n        /* \"#utility.yul\":3348:3425   */\n    tag_35:\n        /* \"#utility.yul\":3385:3392   */\n      0x00\n        /* \"#utility.yul\":3414:3419   */\n      dup2\n        /* \"#utility.yul\":3403:3419   */\n      swap1\n      pop\n        /* \"#utility.yul\":3348:3425   */\n      swap2\n      swap1\n      pop\n      jump\t// out\n        /* \"#utility.yul\":3431:3549   */\n    tag_36:\n        /* \"#utility.yul\":3518:3542   */\n      tag_82\n        /* \"#utility.yul\":3536:3541   */\n      dup2\n        /* \"#utility.yul\":3518:3542   */\n      tag_35\n      jump\t// in\n    tag_82:\n        /* \"#utility.yul\":3513:3516   */\n      dup3\n        /* \"#utility.yul\":3506:3543   */\n      mstore\n        /* \"#utility.yul\":3431:3549   */\n      pop\n      pop\n      jump\t// out\n        /* \"#utility.yul\":3555:3777   */\n    tag_14:\n        /* \"#utility.yul\":3648:3652   */\n      0x00\n        /* \"#utility.yul\":3686:3688   */\n      0x20\n        /* \"#utility.yul\":3675:3684   */\n      dup3\n        /* \"#utility.yul\":3671:3689   */\n      add\n        /* \"#utility.yul\":3663:3689   */\n      swap1\n      pop\n        /* \"#utility.yul\":3699:3770   */\n      tag_84\n        /* \"#utility.yul\":3767:3768   */\n      0x00\n        /* \"#utility.yul\":3756:3765   */\n      dup4\n        /* \"#utility.yul\":3752:3769   */\n      add\n        /* \"#utility.yul\":3743:3749   */\n      dup5\n        /* \"#utility.yul\":3699:3770   */\n      tag_36\n      jump\t// in\n    tag_84:\n        /* \"#utility.yul\":3555:3777   */\n      swap3\n      swap2\n      pop\n      pop\n      jump\t// out\n        /* \"#utility.yul\":3783:3952   */\n    tag_37:\n        /* \"#utility.yul\":3867:3878   */\n      0x00\n        /* \"#utility.yul\":3901:3907   */\n      dup3\n        /* \"#utility.yul\":3896:3899   */\n      dup3\n        /* \"#utility.yul\":3889:3908   */\n      mstore\n        /* \"#utility.yul\":3941:3945   */\n      0x20\n        /* \"#utility.yul\":3936:3939   */\n      dup3\n        /* \"#utility.yul\":3932:3946   */\n      add\n        /* \"#utility.yul\":3917:3946   */\n      swap1\n      pop\n        /* \"#utility.yul\":3783:3952   */\n      swap3\n      swap2\n      pop\n      pop\n      jump\t// out\n        /* \"#utility.yul\":3958:4120   */\n    tag_38:\n        /* \"#utility.yul\":4098:4112   */\n      0x756e617574686f72697a65640000000000000000000000000000000000000000\n        /* \"#utility.yul\":4094:4095   */\n      0x00\n        /* \"#utility.yul\":4086:4092   */\n      dup3\n        /* \"#utility.yul\":4082:4096   */\n      add\n        /* \"#utility.yul\":4075:4113   */\n      mstore\n        /* \"#utility.yul\":3958:4120   */\n      pop\n      jump\t// out\n        /* \"#utility.yul\":4126:4492   */\n    tag_39:\n        /* \"#utility.yul\":4268:4271   */\n      0x00\n        /* \"#utility.yul\":4289:4356   */\n      tag_88\n        /* \"#utility.yul\":4353:4355   */\n      0x0c\n        /* \"#utility.yul\":4348:4351   */\n      dup4\n        /* \"#utility.yul\":4289:4356   */\n      tag_37\n      jump\t// in\n    tag_88:\n        /* \"#utility.yul\":4282:4356   */\n      swap2\n      pop\n        /* \"#utility.yul\":4365:4458   */\n      tag_89\n        /* \"#utility.yul\":4454:4457   */\n      dup3\n        /* \"#utility.yul\":4365:4458   */\n      tag_38\n      jump\t// in\n    tag_89:\n        /* \"#utility.yul\":4483:4485   */\n      0x20\n        /* \"#utility.yul\":4478:4481   */\n      dup3\n        /* \"#utility.yul\":4474:4486   */\n      add\n        /* \"#utility.yul\":4467:4486   */\n      swap1\n      pop\n        /* \"#utility.yul\":4126:4492   */\n      swap2\n      swap1\n      pop\n      jump\t// out\n        /* \"#utility.yul\":4498:4917   */\n    tag_18:\n        /* \"#utility.yul\":4664:4668   */\n      0x00\n        /* \"#utility.yul\":4702:4704   */\n      0x20\n        /* \"#utility.yul\":4691:4700   */\n      dup3\n        /* \"#utility.yul\":4687:4705   */\n      add\n        /* \"#utility.yul\":4679:4705   */\n      swap1\n      pop\n        /* \"#utility.yul\":4751:4760   */\n      dup2\n        /* \"#utility.yul\":4745:4749   */\n      dup2\n        /* \"#utility.yul\":4741:4761   */\n      sub\n        /* \"#utility.yul\":4737:4738   */\n      0x00\n        /* \"#utility.yul\":4726:4735   */\n      dup4\n        /* \"#utility.yul\":4722:4739   */\n      add\n        /* \"#utility.yul\":4715:4762   */\n      mstore\n        /* \"#utility.yul\":4779:4910   */\n      tag_91\n        /* \"#utility.yul\":4905:4909   */\n      dup2\n        /* \"#utility.yul\":4779:4910   */\n      tag_39\n      jump\t// in\n    tag_91:\n        /* \"#utility.yul\":4771:4910   */\n      swap1\n      pop\n        /* \"#utility.yul\":4498:4917   */\n      swap2\n      swap1\n      pop\n      jump\t// out\n        /* \"#utility.yul\":4923:5103   */\n    tag_40:\n        /* \"#utility.yul\":4971:5048   */\n      0x4e487b7100000000000000000000000000000000000000000000000000000000\n        /* \"#utility.yul\":4968:4969   */\n      0x00\n        /* \"#utility.yul\":4961:5049   */\n      mstore\n        /* \"#utility.yul\":5068:5072   */\n      0x11\n        /* \"#utility.yul\":5065:5066   */\n      0x04\n        /* \"#utility.yul\":5058:5073   */\n      mstore\n        /* \"#utility.yul\":5092:5096   */\n      0x24\n        /* \"#utility.yul\":5089:5090   */\n      0x00\n        /* \"#utility.yul\":5082:5097   */\n      revert\n        /* \"#utility.yul\":5109:5342   */\n    tag_20:\n        /* \"#utility.yul\":5148:5151   */\n      0x00\n        /* \"#utility.yul\":5171:5195   */\n      tag_94\n        /* \"#utility.yul\":5189:5194   */\n      dup3\n        /* \"#utility.yul\":5171:5195   */\n      tag_35\n      jump\t// in\n    tag_94:\n        /* \"#utility.yul\":5162:5195   */\n      swap2\n      pop\n        /* \"#utility.yul\":5217:5283   */\n      0xffffffffffffffffffffffffffffffffffffffffffffffffffffffffffffffff\n        /* \"#utility.yul\":5210:5215   */\n      dup3\n        /* \"#utility.yul\":5207:5284   */\n      sub\n        /* \"#utility.yul\":5204:5307   */\n      tag_95\n      jumpi\n        /* \"#utility.yul\":5287:5305   */\n      tag_96\n      tag_40\n      jump\t// in\n    tag_96:\n        /* \"#utility.yul\":5204:5307   */\n    tag_95:\n        /* \"#utility.yul\":5334:5335   */\n      0x01\n        /* \"#utility.yul\":5327:5332   */\n      dup3\n        /* \"#utility.yul\":5323:5336   */\n      add\n        /* \"#utility.yul\":5316:5336   */\n      swap1\n      pop\n        /* \"#utility.yul\":5109:5342   */\n      swap2\n      swap1\n      pop\n      jump\t// out\n\n    auxdata: 0xa26469706673582212208fecdcb272906a6fbb6e6e1b123493689f430ddae64572101980a629fd581a1b64736f6c63430008190033\n}\n",
				"bytecode": {
					"linkReferences": {},
					"object": "60a060405234801561000f575f80fd5b5060405161052a38038061052a833981810160405281019061003191906100c9565b8073ffffffffffffffffffffffffffffffffffffffff1660808173ffffffffffffffffffffffffffffffffffffffff1681525050506100f4565b5f80fd5b5f73ffffffffffffffffffffffffffffffffffffffff82169050919050565b5f6100988261006f565b9050919050565b6100a88161008e565b81146100b2575f80fd5b50565b5f815190506100c38161009f565b92915050565b5f602082840312156100de576100dd61006b565b5b5f6100eb848285016100b5565b91505092915050565b60805161041f61010b5f395f6089015261041f5ff3fe608060405260043610610028575f3560e01c8063019009371461002c5780638381f58a1461005c575b5f80fd5b61004660048036038101906100419190610220565b610086565b60405161005391906102b3565b60405180910390f35b348015610067575f80fd5b5061007061013a565b60405161007d91906102e4565b60405180910390f35b5f7f000000000000000000000000000000000000000000000000000000000000000073ffffffffffffffffffffffffffffffffffffffff163373ffffffffffffffffffffffffffffffffffffffff1614610115576040517f08c379a000000000000000000000000000000000000000000000000000000000815260040161010c90610357565b60405180910390fd5b5f80815480929190610126906103a2565b91905055505f545f1b905095945050505050565b5f5481565b5f80fd5b5f80fd5b5f819050919050565b61015981610147565b8114610163575f80fd5b50565b5f8135905061017481610150565b92915050565b5f6fffffffffffffffffffffffffffffffff82169050919050565b61019e8161017a565b81146101a8575f80fd5b50565b5f813590506101b981610195565b92915050565b5f80fd5b5f80fd5b5f80fd5b5f8083601f8401126101e0576101df6101bf565b5b8235905067ffffffffffffffff8111156101fd576101fc6101c3565b5b602083019150836001820283011115610219576102186101c7565b5b9250929050565b5f805f805f608086880312156102395761023861013f565b5b5f61024688828901610166565b9550506020610257888289016101ab565b945050604061026888828901610166565b935050606086013567ffffffffffffffff81111561028957610288610143565b5b610295888289016101cb565b92509250509295509295909350565b6102ad81610147565b82525050565b5f6020820190506102c65f8301846102a4565b92915050565b5f819050919050565b6102de816102cc565b82525050565b5f6020820190506102f75f8301846102d5565b92915050565b5f82825260208201905092915050565b7f756e617574686f72697a656400000000000000000000000000000000000000005f82015250565b5f610341600c836102fd565b915061034c8261030d565b602082019050919050565b5f6020820190508181035f83015261036e81610335565b9050919050565b7f4e487b71000000000000000000000000000000000000000000000000000000005f52601160045260245ffd5b5f6103ac826102cc565b91507fffffffffffffffffffffffffffffffffffffffffffffffffffffffffffffffff82036103de576103dd610375565b5b60018201905091905056fea26469706673582212208fecdcb272906a6fbb6e6e1b123493689f430ddae64572101980a629fd581a1b64736f6c63430008190033",
					"opcodes": "PUSH1 0xA0 PUSH1 0x40 MSTORE CALLVALUE DUP1 ISZERO PUSH2 0xF JUMPI PUSH0 DUP1 REVERT JUMPDEST POP PUSH1 0x40 MLOAD PUSH2 0x52A CODESIZE SUB DUP1 PUSH2 0x52A DUP4 CODECOPY DUP2 DUP2 ADD PUSH1 0x40 MSTORE DUP2 ADD SWAP1 PUSH2 0x31 SWAP2 SWAP1 PUSH2 0xC9 JUMP JUMPDEST DUP1 PUSH20 0xFFFFFFFFFFFFFFFFFFFFFFFFFFFFFFFFFFFFFFFF AND PUSH1 0x80 DUP2 PUSH20 0xFFFFFFFFFFFFFFFFFFFFFFFFFFFFFFFFFFFFFFFF AND DUP2 MSTORE POP POP POP PUSH2 0xF4 JUMP JUMPDEST PUSH0 DUP1 REVERT JUMPDEST PUSH0 PUSH20 0xFFFFFFFFFFFFFFFFFFFFFFFFFFFFFFFFFFFFFFFF DUP3 AND SWAP1 POP SWAP2 SWAP1 POP JUMP JUMPDEST PUSH0 PUSH2 0x98 DUP3 PUSH2 0x6F JUMP JUMPDEST SWAP1 POP SWAP2 SWAP1 POP JUMP JUMPDEST PUSH2 0xA8 DUP2 PUSH2 0x8E JUMP JUMPDEST DUP2 EQ PUSH2 0xB2 JUMPI PUSH0 DUP1 REVERT JUMPDEST POP JUMP JUMPDEST PUSH0 DUP2 MLOAD SWAP1 POP PUSH2 0xC3 DUP2 PUSH2 0x9F JUMP JUMPDEST SWAP3 SWAP2 POP POP JUMP JUMPDEST PUSH0 PUSH1 0x20 DUP3 DUP5 SUB SLT ISZERO PUSH2 0xDE JUMPI PUSH2 0xDD PUSH2 0x6B JUMP JUMPDEST JUMPDEST PUSH0 PUSH2 0xEB DUP5 DUP3 DUP6 ADD PUSH2 0xB5 JUMP JUMPDEST SWAP2 POP POP SWAP3 SWAP2 POP POP JUMP JUMPDEST PUSH1 0x80 MLOAD PUSH2 0x41F PUSH2 0x10B PUSH0 CODECOPY PUSH0 PUSH1 0x89 ADD MSTORE PUSH2 0x41F PUSH0 RETURN INVALID PUSH1 0x80 PUSH1 0x40 MSTORE PUSH1 0x4 CALLDATASIZE LT PUSH2 0x28 JUMPI PUSH0 CALLDATALOAD PUSH1 0xE0 SHR DUP1 PUSH4 0x1900937 EQ PUSH2 0x2C JUMPI DUP1 PUSH4 0x8381F58A EQ PUSH2 0x5C JUMPI JUMPDEST PUSH0 DUP1 REVERT JUMPDEST PUSH2 0x46 PUSH1 0x4 DUP1 CALLDATASIZE SUB DUP2 ADD SWAP1 PUSH2 0x41 SWAP2 SWAP1 PUSH2 0x220 JUMP JUMPDEST PUSH2 0x86 JUMP JUMPDEST PUSH1 0x40 MLOAD PUSH2 0x53 SWAP2 SWAP1 PUSH2 0x2B3 JUMP JUMPDEST PUSH1 0x40 MLOAD DUP1 SWAP2 SUB SWAP1 RETURN JUMPDEST CALLVALUE DUP1 ISZERO PUSH2 0x67 JUMPI PUSH0 DUP1 REVERT JUMPDEST POP PUSH2 0x70 PUSH2 0x13A JUMP JUMPDEST PUSH1 0x40 MLOAD PUSH2 0x7D SWAP2 SWAP1 PUSH2 0x2E4 JUMP JUMPDEST PUSH1 0x40 MLOAD DUP1 SWAP2 SUB SWAP1 RETURN JUMPDEST PUSH0 PUSH32 0x0 PUSH20 0xFFFFFFFFFFFFFFFFFFFFFFFFFFFFFFFFFFFFFFFF AND CALLER PUSH20 0xFFFFFFFFFFFFFFFFFFFFFFFFFFFFFFFFFFFFFFFF AND EQ PUSH2 0x115 JUMPI PUSH1 0x40 MLOAD PUSH32 0x8C379A000000000000000000000000000000000000000000000000000000000 DUP2 MSTORE PUSH1 0x4 ADD PUSH2 0x10C SWAP1 PUSH2 0x357 JUMP JUMPDEST PUSH1 0x40 MLOAD DUP1 SWAP2 SUB SWAP1 REVERT JUMPDEST PUSH0 DUP1 DUP2 SLOAD DUP1 SWAP3 SWAP2 SWAP1 PUSH2 0x126 SWAP1 PUSH2 0x3A2 JUMP JUMPDEST SWAP2 SWAP1 POP SSTORE POP PUSH0 SLOAD PUSH0 SHL SWAP1 POP SWAP6 SWAP5 POP POP POP POP POP JUMP JUMPDEST PUSH0 SLOAD DUP2 JUMP JUMPDEST PUSH0 DUP1 REVERT JUMPDEST PUSH0 DUP1 REVERT JUMPDEST PUSH0 DUP2 SWAP1 POP SWAP2 SWAP1 POP JUMP JUMPDEST PUSH2 0x159 DUP2 PUSH2 0x147 JUMP JUMPDEST DUP2 EQ PUSH2 0x163 JUMPI PUSH0 DUP1 REVERT JUMPDEST POP JUMP JUMPDEST PUSH0 DUP2 CALLDATALOAD SWAP1 POP PUSH2 0x174 DUP2 PUSH2 0x150 JUMP JUMPDEST SWAP3 SWAP2 POP POP JUMP JUMPDEST PUSH0 PUSH16 0xFFFFFFFFFFFFFFFFFFFFFFFFFFFFFFFF DUP3 AND SWAP1 POP SWAP2 SWAP1 POP JUMP JUMPDEST PUSH2 0x19E DUP2 PUSH2 0x17A JUMP JUMPDEST DUP2 EQ PUSH2 0x1A8 JUMPI PUSH0 DUP1 REVERT JUMPDEST POP JUMP JUMPDEST PUSH0 DUP2 CALLDATALOAD SWAP1 POP PUSH2 0x1B9 DUP2 PUSH2 0x195 JUMP JUMPDEST SWAP3 SWAP2 POP POP JUMP JUMPDEST PUSH0 DUP1 REVERT JUMPDEST PUSH0 DUP1 REVERT JUMPDEST PUSH0 DUP1 REVERT JUMPDEST PUSH0 DUP1 DUP4 PUSH1 0x1F DUP5 ADD SLT PUSH2 0x1E0 JUMPI PUSH2 0x1DF PUSH2 0x1BF JUMP JUMPDEST JUMPDEST DUP3 CALLDATALOAD SWAP1 POP PUSH8 0xFFFFFFFFFFFFFFFF DUP2 GT ISZERO PUSH2 0x1FD JUMPI PUSH2 0x1FC PUSH2 0x1C3 JUMP JUMPDEST JUMPDEST PUSH1 0x20 DUP4 ADD SWAP2 POP DUP4 PUSH1 0x1 DUP3 MUL DUP4 ADD GT ISZERO PUSH2 0x219 JUMPI PUSH2 0x218 PUSH2 0x1C7 JUMP JUMPDEST JUMPDEST SWAP3 POP SWAP3 SWAP1 POP JUMP JUMPDEST PUSH0 DUP1 PUSH0 DUP1 PUSH0 PUSH1 0x80 DUP7 DUP9 SUB SLT ISZERO PUSH2 0x239 JUMPI PUSH2 0x238 PUSH2 0x13F JUMP JUMPDEST JUMPDEST PUSH0 PUSH2 0x246 DUP9 DUP3 DUP10 ADD PUSH2 0x166 JUMP JUMPDEST SWAP6 POP POP PUSH1 0x20 PUSH2 0x257 DUP9 DUP3 DUP10 ADD PUSH2 0x1AB JUMP JUMPDEST SWAP5 POP POP PUSH1 0x40 PUSH2 0x268 DUP9 DUP3 DUP10 ADD PUSH2 0x166 JUMP JUMPDEST SWAP4 POP POP PUSH1 0x60 DUP7 ADD CALLDATALOAD PUSH8 0xFFFFFFFFFFFFFFFF DUP2 GT ISZERO PUSH2 0x289 JUMPI PUSH2 0x288 PUSH2 0x143 JUMP JUMPDEST JUMPDEST PUSH2 0x295 DUP9 DUP3 DUP10 ADD PUSH2 0x1CB JUMP JUMPDEST SWAP3 POP SWAP3 POP POP SWAP3 SWAP6 POP SWAP3 SWAP6 SWAP1 SWAP4 POP JUMP JUMPDEST PUSH2 0x2AD DUP2 PUSH2 0x147 JUMP JUMPDEST DUP3 MSTORE POP POP JUMP JUMPDEST PUSH0 PUSH1 0x20 DUP3 ADD SWAP1 POP PUSH2 0x2C6 PUSH0 DUP4 ADD DUP5 PUSH2 0x2A4 JUMP JUMPDEST SWAP3 SWAP2 POP POP JUMP JUMPDEST PUSH0 DUP2 SWAP1 POP SWAP2 SWAP1 POP JUMP JUMPDEST PUSH2 0x2DE DUP2 PUSH2 0x2CC JUMP JUMPDEST DUP3 MSTORE POP POP JUMP JUMPDEST PUSH0 PUSH1 0x20 DUP3 ADD SWAP1 POP PUSH2 0x2F7 PUSH0 DUP4 ADD DUP5 PUSH2 0x2D5 JUMP JUMPDEST SWAP3 SWAP2 POP POP JUMP JUMPDEST PUSH0 DUP3 DUP3 MSTORE PUSH1 0x20 DUP3 ADD SWAP1 POP SWAP3 SWAP2 POP POP JUMP JUMPDEST PUSH32 0x756E617574686F72697A65640000000000000000000000000000000000000000 PUSH0 DUP3 ADD MSTORE POP JUMP JUMPDEST PUSH0 PUSH2 0x341 PUSH1 0xC DUP4 PUSH2 0x2FD JUMP JUMPDEST SWAP2 POP PUSH2 0x34C DUP3 PUSH2 0x30D JUMP JUMPDEST PUSH1 0x20 DUP3 ADD SWAP1 POP SWAP2 SWAP1 POP JUMP JUMPDEST PUSH0 PUSH1 0x20 DUP3 ADD SWAP1 POP DUP2 DUP2 SUB PUSH0 DUP4 ADD MSTORE PUSH2 0x36E DUP2 PUSH2 0x335 JUMP JUMPDEST SWAP1 POP SWAP2 SWAP1 POP JUMP JUMPDEST PUSH32 0x4E487B7100000000000000000000000000000000000000000000000000000000 PUSH0 MSTORE PUSH1 0x11 PUSH1 0x4 MSTORE PUSH1 0x24 PUSH0 REVERT JUMPDEST PUSH0 PUSH2 0x3AC DUP3 PUSH2 0x2CC JUMP JUMPDEST SWAP2 POP PUSH32 0xFFFFFFFFFFFFFFFFFFFFFFFFFFFFFFFFFFFFFFFFFFFFFFFFFFFFFFFFFFFFFFFF DUP3 SUB PUSH2 0x3DE JUMPI PUSH2 0x3DD PUSH2 0x375 JUMP JUMPDEST JUMPDEST PUSH1 0x1 DUP3 ADD SWAP1 POP SWAP2 SWAP1 POP JUMP INVALID LOG2 PUSH5 0x6970667358 0x22 SLT KECCAK256 DUP16 0xEC 0xDC 0xB2 PUSH19 0x906A6FBB6E6E1B123493689F430DDAE6457210 NOT DUP1 0xA6 0x29 REVERT PC BYTE SHL PUSH5 0x736F6C6343 STOP ADDMOD NOT STOP CALLER "
				},
				"gasEstimates": {
					"creation": {
						"codeDepositCost": "211000",
						"executionCost": "infinite",
						"totalCost": "infinite"
					},
					"external": {
						"number()": "2424",
						"onGmpReceived(bytes32,uint128,bytes32,bytes)": "infinite"
					}
				},
				"methodIdentifiers": {
					"number()": "8381f58a",
					"onGmpReceived(bytes32,uint128,bytes32,bytes)": "01900937"
				}
			},
			"storageLayout": {
				"storage": [
					{
						"astId": 9,
						"contract": "contracts/Counter.sol:Counter",
						"label": "number",
						"offset": 0,
						"slot": "0",
						"type": "t_uint256"
					}
				],
				"types": {
					"t_uint256": {
						"encoding": "inplace",
						"label": "uint256",
						"numberOfBytes": "32"
					}
				}
			},
			"userdoc": {
				"kind": "user",
				"methods": {},
				"version": 1
			}
		}
	}
}